{
  "_format": "hh-sol-artifact-1",
  "contractName": "Rebalance",
  "sourceName": "contracts/Rebalance.sol",
  "abi": [
    {
      "anonymous": false,
      "inputs": [
        {
          "indexed": true,
          "internalType": "address",
          "name": "previousOwner",
          "type": "address"
        },
        {
          "indexed": true,
          "internalType": "address",
          "name": "newOwner",
          "type": "address"
        }
      ],
      "name": "OwnershipTransferred",
      "type": "event"
    },
    {
      "inputs": [
        {
          "internalType": "address",
          "name": "router",
          "type": "address"
        },
        {
          "internalType": "address",
          "name": "_tokenIn",
          "type": "address"
        },
        {
          "internalType": "address",
          "name": "_tokenOut",
          "type": "address"
        },
        {
          "internalType": "uint256",
          "name": "_amount",
          "type": "uint256"
        }
      ],
      "name": "getAmountOutMin",
      "outputs": [
        {
          "internalType": "uint256",
          "name": "",
          "type": "uint256"
        }
      ],
      "stateMutability": "view",
      "type": "function"
    },
    {
      "inputs": [
        {
          "internalType": "address",
          "name": "_tokenContractAddress",
          "type": "address"
        }
      ],
      "name": "getBalance",
      "outputs": [
        {
          "internalType": "uint256",
          "name": "",
          "type": "uint256"
        }
      ],
      "stateMutability": "view",
      "type": "function"
    },
    {
      "inputs": [
        {
          "internalType": "address",
          "name": "_router1",
          "type": "address"
        },
        {
          "internalType": "address",
          "name": "_token1",
          "type": "address"
        },
        {
          "internalType": "address",
          "name": "_token2",
          "type": "address"
        },
        {
          "internalType": "uint256",
          "name": "_amount",
          "type": "uint256"
        }
      ],
      "name": "getQuotation",
      "outputs": [
        {
          "internalType": "uint256",
          "name": "",
          "type": "uint256"
        }
      ],
      "stateMutability": "view",
      "type": "function"
    },
    {
      "inputs": [],
      "name": "owner",
      "outputs": [
        {
          "internalType": "address",
          "name": "",
          "type": "address"
        }
      ],
      "stateMutability": "view",
      "type": "function"
    },
    {
      "inputs": [
        {
          "internalType": "address",
          "name": "_router",
          "type": "address"
        },
        {
          "internalType": "address[]",
          "name": "_token1",
          "type": "address[]"
        },
        {
          "internalType": "address[]",
          "name": "_token2",
          "type": "address[]"
        },
        {
          "internalType": "uint256",
          "name": "_amount",
          "type": "uint256"
        }
      ],
      "name": "reBalance",
      "outputs": [],
      "stateMutability": "nonpayable",
      "type": "function"
    },
    {
      "inputs": [],
      "name": "renounceOwnership",
      "outputs": [],
      "stateMutability": "nonpayable",
      "type": "function"
    },
    {
      "inputs": [
        {
          "internalType": "address",
          "name": "newOwner",
          "type": "address"
        }
      ],
      "name": "transferOwnership",
      "outputs": [],
      "stateMutability": "nonpayable",
      "type": "function"
    },
    {
      "inputs": [],
      "name": "withdrawEth",
      "outputs": [],
      "stateMutability": "nonpayable",
      "type": "function"
    },
    {
      "inputs": [
        {
          "internalType": "address",
          "name": "tokenAddress",
          "type": "address"
        }
      ],
      "name": "withdrawTokens",
      "outputs": [],
      "stateMutability": "nonpayable",
      "type": "function"
    }
  ],
  "bytecode": "0x608060405234801561001057600080fd5b5061002d61002261003260201b60201c565b61003a60201b60201c565b6100fe565b600033905090565b60008060009054906101000a900473ffffffffffffffffffffffffffffffffffffffff169050816000806101000a81548173ffffffffffffffffffffffffffffffffffffffff021916908373ffffffffffffffffffffffffffffffffffffffff1602179055508173ffffffffffffffffffffffffffffffffffffffff168173ffffffffffffffffffffffffffffffffffffffff167f8be0079c531659141344cd1fd0a4f28419497f9722a3daafe3b4186f6b6457e060405160405180910390a35050565b6114bd8061010d6000396000f3fe608060405234801561001057600080fd5b50600436106100935760003560e01c80638da5cb5b116100665780638da5cb5b1461010a578063a0ef91df14610128578063efc392ca14610132578063f2fde38b14610162578063f8b2cb4f1461017e57610093565b806343cf6f241461009857806349df728c146100c857806352b7ec7f146100e4578063715018a614610100575b600080fd5b6100b260048036038101906100ad9190610d91565b6101ae565b6040516100bf91906110be565b60405180910390f35b6100e260048036038101906100dd9190610d64565b610364565b005b6100fe60048036038101906100f99190610df8565b6104ff565b005b610108610600565b005b610112610688565b60405161011f919061103a565b60405180910390f35b6101306106b1565b005b61014c60048036038101906101479190610d91565b610776565b60405161015991906110be565b60405180910390f35b61017c60048036038101906101779190610d64565b610793565b005b61019860048036038101906101939190610d64565b61088b565b6040516101a591906110be565b60405180910390f35b60006060600267ffffffffffffffff8111156101cd576101cc611371565b5b6040519080825280602002602001820160405280156101fb5781602001602082028036833780820191505090505b509050848160008151811061021357610212611342565b5b602002602001019073ffffffffffffffffffffffffffffffffffffffff16908173ffffffffffffffffffffffffffffffffffffffff1681525050838160018151811061026257610261611342565b5b602002602001019073ffffffffffffffffffffffffffffffffffffffff16908173ffffffffffffffffffffffffffffffffffffffff168152505060008673ffffffffffffffffffffffffffffffffffffffff1663d06ca61f85846040518363ffffffff1660e01b81526004016102d99291906110d9565b60006040518083038186803b1580156102f157600080fd5b505afa158015610305573d6000803e3d6000fd5b505050506040513d6000823e3d601f19601f8201168201806040525081019061032e9190610e9f565b9050806001835161033f9190611254565b815181106103505761034f611342565b5b602002602001015192505050949350505050565b61036c610922565b73ffffffffffffffffffffffffffffffffffffffff1661038a610688565b73ffffffffffffffffffffffffffffffffffffffff16146103e0576040517f08c379a00000000000000000000000000000000000000000000000000000000081526004016103d79061109e565b60405180910390fd5b60008190508073ffffffffffffffffffffffffffffffffffffffff1663a9059cbb338373ffffffffffffffffffffffffffffffffffffffff166370a08231306040518263ffffffff1660e01b815260040161043b919061103a565b60206040518083038186803b15801561045357600080fd5b505afa158015610467573d6000803e3d6000fd5b505050506040513d601f19601f8201168201806040525081019061048b9190610f15565b6040518363ffffffff1660e01b81526004016104a8929190611055565b602060405180830381600087803b1580156104c257600080fd5b505af11580156104d6573d6000803e3d6000fd5b505050506040513d601f19601f820116820180604052508101906104fa9190610ee8565b505050565b610507610922565b73ffffffffffffffffffffffffffffffffffffffff16610525610688565b73ffffffffffffffffffffffffffffffffffffffff161461057b576040517f08c379a00000000000000000000000000000000000000000000000000000000081526004016105729061109e565b60405180910390fd5b60005b838390508110156105f7576105e3878787848181106105a05761059f611342565b5b90506020020160208101906105b59190610d64565b8686858181106105c8576105c7611342565b5b90506020020160208101906105dd9190610d64565b8561092a565b6001816105f091906111fe565b905061057e565b50505050505050565b610608610922565b73ffffffffffffffffffffffffffffffffffffffff16610626610688565b73ffffffffffffffffffffffffffffffffffffffff161461067c576040517f08c379a00000000000000000000000000000000000000000000000000000000081526004016106739061109e565b60405180910390fd5b6106866000610b58565b565b60008060009054906101000a900473ffffffffffffffffffffffffffffffffffffffff16905090565b6106b9610922565b73ffffffffffffffffffffffffffffffffffffffff166106d7610688565b73ffffffffffffffffffffffffffffffffffffffff161461072d576040517f08c379a00000000000000000000000000000000000000000000000000000000081526004016107249061109e565b60405180910390fd5b3373ffffffffffffffffffffffffffffffffffffffff166108fc479081150290604051600060405180830381858888f19350505050158015610773573d6000803e3d6000fd5b50565b600080610785868686866101ae565b905080915050949350505050565b61079b610922565b73ffffffffffffffffffffffffffffffffffffffff166107b9610688565b73ffffffffffffffffffffffffffffffffffffffff161461080f576040517f08c379a00000000000000000000000000000000000000000000000000000000081526004016108069061109e565b60405180910390fd5b600073ffffffffffffffffffffffffffffffffffffffff168173ffffffffffffffffffffffffffffffffffffffff16141561087f576040517f08c379a00000000000000000000000000000000000000000000000000000000081526004016108769061107e565b60405180910390fd5b61088881610b58565b50565b6000808273ffffffffffffffffffffffffffffffffffffffff166370a08231306040518263ffffffff1660e01b81526004016108c7919061103a565b60206040518083038186803b1580156108df57600080fd5b505afa1580156108f3573d6000803e3d6000fd5b505050506040513d601f19601f820116820180604052508101906109179190610f15565b905080915050919050565b600033905090565b8273ffffffffffffffffffffffffffffffffffffffff1663095ea7b385836040518363ffffffff1660e01b8152600401610965929190611055565b602060405180830381600087803b15801561097f57600080fd5b505af1158015610993573d6000803e3d6000fd5b505050506040513d601f19601f820116820180604052508101906109b79190610ee8565b506060600267ffffffffffffffff8111156109d5576109d4611371565b5b604051908082528060200260200182016040528015610a035781602001602082028036833780820191505090505b5090508381600081518110610a1b57610a1a611342565b5b602002602001019073ffffffffffffffffffffffffffffffffffffffff16908173ffffffffffffffffffffffffffffffffffffffff16815250508281600181518110610a6a57610a69611342565b5b602002602001019073ffffffffffffffffffffffffffffffffffffffff16908173ffffffffffffffffffffffffffffffffffffffff1681525050600061012c42610ab491906111fe565b90508573ffffffffffffffffffffffffffffffffffffffff166338ed17398460018530866040518663ffffffff1660e01b8152600401610af8959493929190611109565b600060405180830381600087803b158015610b1257600080fd5b505af1158015610b26573d6000803e3d6000fd5b505050506040513d6000823e3d601f19601f82011682018060405250810190610b4f9190610e9f565b50505050505050565b60008060009054906101000a900473ffffffffffffffffffffffffffffffffffffffff169050816000806101000a81548173ffffffffffffffffffffffffffffffffffffffff021916908373ffffffffffffffffffffffffffffffffffffffff1602179055508173ffffffffffffffffffffffffffffffffffffffff168173ffffffffffffffffffffffffffffffffffffffff167f8be0079c531659141344cd1fd0a4f28419497f9722a3daafe3b4186f6b6457e060405160405180910390a35050565b6000610c2f610c2a84611188565b611163565b90508083825260208201905082856020860282011115610c5257610c516113aa565b5b60005b85811015610c825781610c688882610d4f565b845260208401935060208301925050600181019050610c55565b5050509392505050565b600081359050610c9b81611442565b92915050565b60008083601f840112610cb757610cb66113a5565b5b8235905067ffffffffffffffff811115610cd457610cd36113a0565b5b602083019150836020820283011115610cf057610cef6113aa565b5b9250929050565b600082601f830112610d0c57610d0b6113a5565b5b8151610d1c848260208601610c1c565b91505092915050565b600081519050610d3481611459565b92915050565b600081359050610d4981611470565b92915050565b600081519050610d5e81611470565b92915050565b600060208284031215610d7a57610d796113b4565b5b6000610d8884828501610c8c565b91505092915050565b60008060008060808587031215610dab57610daa6113b4565b5b6000610db987828801610c8c565b9450506020610dca87828801610c8c565b9350506040610ddb87828801610c8c565b9250506060610dec87828801610d3a565b91505092959194509250565b60008060008060008060808789031215610e1557610e146113b4565b5b6000610e2389828a01610c8c565b965050602087013567ffffffffffffffff811115610e4457610e436113af565b5b610e5089828a01610ca1565b9550955050604087013567ffffffffffffffff811115610e7357610e726113af565b5b610e7f89828a01610ca1565b93509350506060610e9289828a01610d3a565b9150509295509295509295565b600060208284031215610eb557610eb46113b4565b5b600082015167ffffffffffffffff811115610ed357610ed26113af565b5b610edf84828501610cf7565b91505092915050565b600060208284031215610efe57610efd6113b4565b5b6000610f0c84828501610d25565b91505092915050565b600060208284031215610f2b57610f2a6113b4565b5b6000610f3984828501610d4f565b91505092915050565b6000610f4e8383610f5a565b60208301905092915050565b610f6381611288565b82525050565b610f7281611288565b82525050565b6000610f83826111c4565b610f8d81856111dc565b9350610f98836111b4565b8060005b83811015610fc9578151610fb08882610f42565b9750610fbb836111cf565b925050600181019050610f9c565b5085935050505092915050565b610fdf816112d0565b82525050565b6000610ff26026836111ed565b9150610ffd826113ca565b604082019050919050565b60006110156020836111ed565b915061102082611419565b602082019050919050565b611034816112c6565b82525050565b600060208201905061104f6000830184610f69565b92915050565b600060408201905061106a6000830185610f69565b611077602083018461102b565b9392505050565b6000602082019050818103600083015261109781610fe5565b9050919050565b600060208201905081810360008301526110b781611008565b9050919050565b60006020820190506110d3600083018461102b565b92915050565b60006040820190506110ee600083018561102b565b81810360208301526111008184610f78565b90509392505050565b600060a08201905061111e600083018861102b565b61112b6020830187610fd6565b818103604083015261113d8186610f78565b905061114c6060830185610f69565b611159608083018461102b565b9695505050505050565b600061116d61117e565b905061117982826112e2565b919050565b6000604051905090565b600067ffffffffffffffff8211156111a3576111a2611371565b5b602082029050602081019050919050565b6000819050602082019050919050565b600081519050919050565b6000602082019050919050565b600082825260208201905092915050565b600082825260208201905092915050565b6000611209826112c6565b9150611214836112c6565b9250827fffffffffffffffffffffffffffffffffffffffffffffffffffffffffffffffff0382111561124957611248611313565b5b828201905092915050565b600061125f826112c6565b915061126a836112c6565b92508282101561127d5761127c611313565b5b828203905092915050565b6000611293826112a6565b9050919050565b60008115159050919050565b600073ffffffffffffffffffffffffffffffffffffffff82169050919050565b6000819050919050565b60006112db826112c6565b9050919050565b6112eb826113b9565b810181811067ffffffffffffffff8211171561130a57611309611371565b5b80604052505050565b7f4e487b7100000000000000000000000000000000000000000000000000000000600052601160045260246000fd5b7f4e487b7100000000000000000000000000000000000000000000000000000000600052603260045260246000fd5b7f4e487b7100000000000000000000000000000000000000000000000000000000600052604160045260246000fd5b600080fd5b600080fd5b600080fd5b600080fd5b600080fd5b6000601f19601f8301169050919050565b7f4f776e61626c653a206e6577206f776e657220697320746865207a65726f206160008201527f6464726573730000000000000000000000000000000000000000000000000000602082015250565b7f4f776e61626c653a2063616c6c6572206973206e6f7420746865206f776e6572600082015250565b61144b81611288565b811461145657600080fd5b50565b6114628161129a565b811461146d57600080fd5b50565b611479816112c6565b811461148457600080fd5b5056fea2646970667358221220d3c4d5ba71ba0c8a5c40364757be741a32ad81ff3b090eb26e7befefb8cf094864736f6c63430008070033",
  "linkReferences": {},
  "deployedLinkReferences": {}
}