{
  "_format": "hh-sol-artifact-1",
  "contractName": "ReBlance",
  "sourceName": "contracts/Rebalance.sol",
  "abi": [
    {
      "anonymous": false,
      "inputs": [
        {
          "indexed": true,
          "internalType": "address",
          "name": "previousOwner",
          "type": "address"
        },
        {
          "indexed": true,
          "internalType": "address",
          "name": "newOwner",
          "type": "address"
        }
      ],
      "name": "OwnershipTransferred",
      "type": "event"
    },
    {
      "inputs": [
        {
          "internalType": "address",
          "name": "router",
          "type": "address"
        },
        {
          "internalType": "address",
          "name": "_tokenIn",
          "type": "address"
        },
        {
          "internalType": "address",
          "name": "_tokenOut",
          "type": "address"
        },
        {
          "internalType": "uint256",
          "name": "_amount",
          "type": "uint256"
        }
      ],
      "name": "getAmountOutMin",
      "outputs": [
        {
          "internalType": "uint256",
          "name": "",
          "type": "uint256"
        }
      ],
      "stateMutability": "view",
      "type": "function"
    },
    {
      "inputs": [
        {
          "internalType": "address",
          "name": "_tokenContractAddress",
          "type": "address"
        }
      ],
      "name": "getBalance",
      "outputs": [
        {
          "internalType": "uint256",
          "name": "",
          "type": "uint256"
        }
      ],
      "stateMutability": "view",
      "type": "function"
    },
    {
      "inputs": [],
      "name": "owner",
      "outputs": [
        {
          "internalType": "address",
          "name": "",
          "type": "address"
        }
      ],
      "stateMutability": "view",
      "type": "function"
    },
    {
      "inputs": [
        {
          "internalType": "address",
          "name": "_router",
          "type": "address"
        },
        {
          "internalType": "address[]",
          "name": "_token1",
          "type": "address[]"
        },
        {
          "internalType": "address[]",
          "name": "_token2",
          "type": "address[]"
        },
        {
          "internalType": "uint256",
          "name": "_amount",
          "type": "uint256"
        }
      ],
      "name": "reBalance",
      "outputs": [],
      "stateMutability": "nonpayable",
      "type": "function"
    },
    {
      "inputs": [],
      "name": "renounceOwnership",
      "outputs": [],
      "stateMutability": "nonpayable",
      "type": "function"
    },
    {
      "inputs": [
        {
          "internalType": "address",
          "name": "newOwner",
          "type": "address"
        }
      ],
      "name": "transferOwnership",
      "outputs": [],
      "stateMutability": "nonpayable",
      "type": "function"
    },
    {
      "inputs": [],
      "name": "withdrawEth",
      "outputs": [],
      "stateMutability": "nonpayable",
      "type": "function"
    },
    {
      "inputs": [
        {
          "internalType": "address",
          "name": "tokenAddress",
          "type": "address"
        }
      ],
      "name": "withdrawTokens",
      "outputs": [],
      "stateMutability": "nonpayable",
      "type": "function"
    }
  ],
  "bytecode": "0x608060405234801561001057600080fd5b5061002d61002261003260201b60201c565b61003a60201b60201c565b6100fe565b600033905090565b60008060009054906101000a900473ffffffffffffffffffffffffffffffffffffffff169050816000806101000a81548173ffffffffffffffffffffffffffffffffffffffff021916908373ffffffffffffffffffffffffffffffffffffffff1602179055508173ffffffffffffffffffffffffffffffffffffffff168173ffffffffffffffffffffffffffffffffffffffff167f8be0079c531659141344cd1fd0a4f28419497f9722a3daafe3b4186f6b6457e060405160405180910390a35050565b6114658061010d6000396000f3fe608060405234801561001057600080fd5b50600436106100885760003560e01c80638da5cb5b1161005b5780638da5cb5b146100ff578063a0ef91df1461011d578063f2fde38b14610127578063f8b2cb4f1461014357610088565b806343cf6f241461008d57806349df728c146100bd57806352b7ec7f146100d9578063715018a6146100f5575b600080fd5b6100a760048036038101906100a29190610d39565b610173565b6040516100b49190611066565b60405180910390f35b6100d760048036038101906100d29190610d0c565b610329565b005b6100f360048036038101906100ee9190610da0565b6104c4565b005b6100fd6105c5565b005b61010761064d565b6040516101149190610fe2565b60405180910390f35b610125610676565b005b610141600480360381019061013c9190610d0c565b61073b565b005b61015d60048036038101906101589190610d0c565b610833565b60405161016a9190611066565b60405180910390f35b60006060600267ffffffffffffffff81111561019257610191611319565b5b6040519080825280602002602001820160405280156101c05781602001602082028036833780820191505090505b50905084816000815181106101d8576101d76112ea565b5b602002602001019073ffffffffffffffffffffffffffffffffffffffff16908173ffffffffffffffffffffffffffffffffffffffff16815250508381600181518110610227576102266112ea565b5b602002602001019073ffffffffffffffffffffffffffffffffffffffff16908173ffffffffffffffffffffffffffffffffffffffff168152505060008673ffffffffffffffffffffffffffffffffffffffff1663d06ca61f85846040518363ffffffff1660e01b815260040161029e929190611081565b60006040518083038186803b1580156102b657600080fd5b505afa1580156102ca573d6000803e3d6000fd5b505050506040513d6000823e3d601f19601f820116820180604052508101906102f39190610e47565b9050806001835161030491906111fc565b81518110610315576103146112ea565b5b602002602001015192505050949350505050565b6103316108ca565b73ffffffffffffffffffffffffffffffffffffffff1661034f61064d565b73ffffffffffffffffffffffffffffffffffffffff16146103a5576040517f08c379a000000000000000000000000000000000000000000000000000000000815260040161039c90611046565b60405180910390fd5b60008190508073ffffffffffffffffffffffffffffffffffffffff1663a9059cbb338373ffffffffffffffffffffffffffffffffffffffff166370a08231306040518263ffffffff1660e01b81526004016104009190610fe2565b60206040518083038186803b15801561041857600080fd5b505afa15801561042c573d6000803e3d6000fd5b505050506040513d601f19601f820116820180604052508101906104509190610ebd565b6040518363ffffffff1660e01b815260040161046d929190610ffd565b602060405180830381600087803b15801561048757600080fd5b505af115801561049b573d6000803e3d6000fd5b505050506040513d601f19601f820116820180604052508101906104bf9190610e90565b505050565b6104cc6108ca565b73ffffffffffffffffffffffffffffffffffffffff166104ea61064d565b73ffffffffffffffffffffffffffffffffffffffff1614610540576040517f08c379a000000000000000000000000000000000000000000000000000000000815260040161053790611046565b60405180910390fd5b60005b838390508110156105bc576105a887878784818110610565576105646112ea565b5b905060200201602081019061057a9190610d0c565b86868581811061058d5761058c6112ea565b5b90506020020160208101906105a29190610d0c565b856108d2565b6001816105b591906111a6565b9050610543565b50505050505050565b6105cd6108ca565b73ffffffffffffffffffffffffffffffffffffffff166105eb61064d565b73ffffffffffffffffffffffffffffffffffffffff1614610641576040517f08c379a000000000000000000000000000000000000000000000000000000000815260040161063890611046565b60405180910390fd5b61064b6000610b00565b565b60008060009054906101000a900473ffffffffffffffffffffffffffffffffffffffff16905090565b61067e6108ca565b73ffffffffffffffffffffffffffffffffffffffff1661069c61064d565b73ffffffffffffffffffffffffffffffffffffffff16146106f2576040517f08c379a00000000000000000000000000000000000000000000000000000000081526004016106e990611046565b60405180910390fd5b3373ffffffffffffffffffffffffffffffffffffffff166108fc479081150290604051600060405180830381858888f19350505050158015610738573d6000803e3d6000fd5b50565b6107436108ca565b73ffffffffffffffffffffffffffffffffffffffff1661076161064d565b73ffffffffffffffffffffffffffffffffffffffff16146107b7576040517f08c379a00000000000000000000000000000000000000000000000000000000081526004016107ae90611046565b60405180910390fd5b600073ffffffffffffffffffffffffffffffffffffffff168173ffffffffffffffffffffffffffffffffffffffff161415610827576040517f08c379a000000000000000000000000000000000000000000000000000000000815260040161081e90611026565b60405180910390fd5b61083081610b00565b50565b6000808273ffffffffffffffffffffffffffffffffffffffff166370a08231306040518263ffffffff1660e01b815260040161086f9190610fe2565b60206040518083038186803b15801561088757600080fd5b505afa15801561089b573d6000803e3d6000fd5b505050506040513d601f19601f820116820180604052508101906108bf9190610ebd565b905080915050919050565b600033905090565b8273ffffffffffffffffffffffffffffffffffffffff1663095ea7b385836040518363ffffffff1660e01b815260040161090d929190610ffd565b602060405180830381600087803b15801561092757600080fd5b505af115801561093b573d6000803e3d6000fd5b505050506040513d601f19601f8201168201806040525081019061095f9190610e90565b506060600267ffffffffffffffff81111561097d5761097c611319565b5b6040519080825280602002602001820160405280156109ab5781602001602082028036833780820191505090505b50905083816000815181106109c3576109c26112ea565b5b602002602001019073ffffffffffffffffffffffffffffffffffffffff16908173ffffffffffffffffffffffffffffffffffffffff16815250508281600181518110610a1257610a116112ea565b5b602002602001019073ffffffffffffffffffffffffffffffffffffffff16908173ffffffffffffffffffffffffffffffffffffffff1681525050600061012c42610a5c91906111a6565b90508573ffffffffffffffffffffffffffffffffffffffff166338ed17398460018530866040518663ffffffff1660e01b8152600401610aa09594939291906110b1565b600060405180830381600087803b158015610aba57600080fd5b505af1158015610ace573d6000803e3d6000fd5b505050506040513d6000823e3d601f19601f82011682018060405250810190610af79190610e47565b50505050505050565b60008060009054906101000a900473ffffffffffffffffffffffffffffffffffffffff169050816000806101000a81548173ffffffffffffffffffffffffffffffffffffffff021916908373ffffffffffffffffffffffffffffffffffffffff1602179055508173ffffffffffffffffffffffffffffffffffffffff168173ffffffffffffffffffffffffffffffffffffffff167f8be0079c531659141344cd1fd0a4f28419497f9722a3daafe3b4186f6b6457e060405160405180910390a35050565b6000610bd7610bd284611130565b61110b565b90508083825260208201905082856020860282011115610bfa57610bf9611352565b5b60005b85811015610c2a5781610c108882610cf7565b845260208401935060208301925050600181019050610bfd565b5050509392505050565b600081359050610c43816113ea565b92915050565b60008083601f840112610c5f57610c5e61134d565b5b8235905067ffffffffffffffff811115610c7c57610c7b611348565b5b602083019150836020820283011115610c9857610c97611352565b5b9250929050565b600082601f830112610cb457610cb361134d565b5b8151610cc4848260208601610bc4565b91505092915050565b600081519050610cdc81611401565b92915050565b600081359050610cf181611418565b92915050565b600081519050610d0681611418565b92915050565b600060208284031215610d2257610d2161135c565b5b6000610d3084828501610c34565b91505092915050565b60008060008060808587031215610d5357610d5261135c565b5b6000610d6187828801610c34565b9450506020610d7287828801610c34565b9350506040610d8387828801610c34565b9250506060610d9487828801610ce2565b91505092959194509250565b60008060008060008060808789031215610dbd57610dbc61135c565b5b6000610dcb89828a01610c34565b965050602087013567ffffffffffffffff811115610dec57610deb611357565b5b610df889828a01610c49565b9550955050604087013567ffffffffffffffff811115610e1b57610e1a611357565b5b610e2789828a01610c49565b93509350506060610e3a89828a01610ce2565b9150509295509295509295565b600060208284031215610e5d57610e5c61135c565b5b600082015167ffffffffffffffff811115610e7b57610e7a611357565b5b610e8784828501610c9f565b91505092915050565b600060208284031215610ea657610ea561135c565b5b6000610eb484828501610ccd565b91505092915050565b600060208284031215610ed357610ed261135c565b5b6000610ee184828501610cf7565b91505092915050565b6000610ef68383610f02565b60208301905092915050565b610f0b81611230565b82525050565b610f1a81611230565b82525050565b6000610f2b8261116c565b610f358185611184565b9350610f408361115c565b8060005b83811015610f71578151610f588882610eea565b9750610f6383611177565b925050600181019050610f44565b5085935050505092915050565b610f8781611278565b82525050565b6000610f9a602683611195565b9150610fa582611372565b604082019050919050565b6000610fbd602083611195565b9150610fc8826113c1565b602082019050919050565b610fdc8161126e565b82525050565b6000602082019050610ff76000830184610f11565b92915050565b60006040820190506110126000830185610f11565b61101f6020830184610fd3565b9392505050565b6000602082019050818103600083015261103f81610f8d565b9050919050565b6000602082019050818103600083015261105f81610fb0565b9050919050565b600060208201905061107b6000830184610fd3565b92915050565b60006040820190506110966000830185610fd3565b81810360208301526110a88184610f20565b90509392505050565b600060a0820190506110c66000830188610fd3565b6110d36020830187610f7e565b81810360408301526110e58186610f20565b90506110f46060830185610f11565b6111016080830184610fd3565b9695505050505050565b6000611115611126565b9050611121828261128a565b919050565b6000604051905090565b600067ffffffffffffffff82111561114b5761114a611319565b5b602082029050602081019050919050565b6000819050602082019050919050565b600081519050919050565b6000602082019050919050565b600082825260208201905092915050565b600082825260208201905092915050565b60006111b18261126e565b91506111bc8361126e565b9250827fffffffffffffffffffffffffffffffffffffffffffffffffffffffffffffffff038211156111f1576111f06112bb565b5b828201905092915050565b60006112078261126e565b91506112128361126e565b925082821015611225576112246112bb565b5b828203905092915050565b600061123b8261124e565b9050919050565b60008115159050919050565b600073ffffffffffffffffffffffffffffffffffffffff82169050919050565b6000819050919050565b60006112838261126e565b9050919050565b61129382611361565b810181811067ffffffffffffffff821117156112b2576112b1611319565b5b80604052505050565b7f4e487b7100000000000000000000000000000000000000000000000000000000600052601160045260246000fd5b7f4e487b7100000000000000000000000000000000000000000000000000000000600052603260045260246000fd5b7f4e487b7100000000000000000000000000000000000000000000000000000000600052604160045260246000fd5b600080fd5b600080fd5b600080fd5b600080fd5b600080fd5b6000601f19601f8301169050919050565b7f4f776e61626c653a206e6577206f776e657220697320746865207a65726f206160008201527f6464726573730000000000000000000000000000000000000000000000000000602082015250565b7f4f776e61626c653a2063616c6c6572206973206e6f7420746865206f776e6572600082015250565b6113f381611230565b81146113fe57600080fd5b50565b61140a81611242565b811461141557600080fd5b50565b6114218161126e565b811461142c57600080fd5b5056fea264697066735822122064d16b278506165954f5ff7efd39f2e4a2ee09c9651ab3e65d2c23026a90ebeb64736f6c63430008070033",
  "linkReferences": {},
  "deployedLinkReferences": {}
}